:1000000000308A00E82A00000A108A100A118207CC
:1000100028340C34013406340A108A100A1182077D
:100020004934433445343234303431343834413453
:1000300000340A108A100A1182074C3443344434C5
:1000400020346534783461346D3470346C34653404
:1000500000340A108A100A118207493442343234BB
:10006000303431343834413400340A108A100A11E3
:100070008207483461347634653420346134203466
:100080006E346934633465342034643461347934D3
:1000900000340A108A100A11820741344334323482
:1000A000303432343034423400340A108A100A11A9
:1000B000820744346F34753462346C3465342034D0
:1000C00074346F347534723400340A108A100A1193
:1000D00082074B34453455344B3441343234303458
:1000E00033343034413400340A108A100A11820744
:1000F000493453342D3456344E34553400340A10B8
:100100008A100A118207523449344334413452343C
:1001100044344F3420344B3441344B344134003474
:100120000A108A100A11820742345234413453347F
:1001300049344C3400340A108A100A1182074834BA
:10014000413452345234593420344B3441344E34D7
:10015000453400340A108A100A11820745344E349F
:1001600047344C3441344E34443400340A108A103D
:100170000A11820741344E34443452344534203419
:10018000533449344C345634413400340A108A1004
:100190000A11820750344F345234543455344734A2
:1001A00041344C3400342330840083130008031995
:1001B000E7280130F800F701F70BDC28F80BDB2803
:1001C0004A30F700F70BE228E528800BD9280034E5
:1001D0002A18EC280812ED280816AA18F128881207
:1001E000F22888162A19F6280813F7280817AA19DA
:1001F000FB288813FC28881700000815FF28081121
:100200000034AB010030081A0130AB040030881A0A
:100210000130F7000310F70D7708AB040030081B1E
:100220000130F700F70DF70DFC30F7057708AB0448
:100230000030881B0130F700F70DF70DF70DF8308F
:10024000F7057708AB042B08F80000340810831674
:1002500008168816081788178312881400000815D6
:10026000000001217808AA0008110000081500000C
:1002700001217808A90008118316081288120813B2
:10028000881383122A0EF700F030F7057708290447
:10029000F8007808A900A91B2729A708031D5229DF
:1002A0000810532908140000881000000811280EB7
:1002B000A9000F30A9052908AA00E82028080F394D
:1002C000A900AA00E8200034831608128812081337
:1002D000881308110810881083120810881008115C
:1002E0000F30A300D3200130A1002108033C031CE0
:1002F00081290330AA00E8200530A300D320A10AF9
:1003000075290230AA00E820A1012108033C031C42
:10031000922921080420A200A7012208A800262172
:10032000A10A85298A110A12102B240B9929A501EB
:10033000AD292408023C031DA0294030A500AD29A9
:100340002408033C031DA7291430A500AD29240867
:10035000043C031DAD295430A50001302302A5073C
:1003600025088038A600A7012608A8002621003409
:1003700022080C3A0319C329063A0319CB29023A79
:100380000319D129D629A7010130A800262102305E
:10039000A300D320DC290130A3000230A400952162
:1003A000DC29A7011030A8002621DC290130A70094
:1003B0002208A8002621DC2900348519E329A00A97
:1003C0006430A300D320200B032A0530A3000130A2
:1003D000A4009521A10121080C2000380319F4295B
:1003E000A10AA200B821EB290430A3000230A40026
:1003F0009521A1012108192000380319032AA10A17
:10040000A200B821FA292008023C031D242A053045
:10041000A3000130A4009521A10121082920003862
:100420000319162AA10AA200B8210D2A0230A3003E
:10043000A4009521A1012108352000380319242AA0
:10044000A10AA200B8211B2A2008033C031D472A49
:100450000630A3000130A4009521A1012108492004
:1004600000380319372AA10AA200B8212E2A043025
:10047000A3000230A4009521A101210855200038D5
:100480000319462AA10AA200B8213D2AA0018A1117
:100490000A12352B051E4A2A0C30A200B82105305D
:1004A000A3000130A4009521A10121086520003896
:1004B00003195E2AA10AA200B821552A0630A3001A
:1004C0000230A4009521A1012108742000380319ED
:1004D0006D2AA10AA200B821642AC830A300D32043
:1004E000051A702A0C30A200B8210530A300013093
:1004F000A4009521A10121087F2000380319842A36
:10050000A10AA200B8217B2A0530A3000230A40072
:100510009521A1012108902000380319932AA10AEE
:10052000A200B8218A2AC830A300D3208A110A1257
:10053000382B851AB92A0330A3000130A400952175
:10054000A1012108B62000380319AA2AA10AA20095
:10055000B821A12A0530A3000230A4009521A101F1
:100560002108C62000380319B92AA10AA200B8211F
:10057000B02A851EDC2A0C30A200B8210430A3006A
:100580000130A4009521A10121089B200038031906
:10059000CD2AA10AA200B821C42A0530A300023046
:1005A000A4009521A1012108AA2000380319DC2A02
:1005B000A10AA200B821D32A8A110A123B2B051BDB
:1005C000E42A88308600E52A86018A110A123F2B28
:1005D000840183131F3083058316031787110C30A2
:1005E00003139900E2309800D030831298008316EC
:1005F00003170908C039890003131F129F12003026
:100600000317880083128701880189010313A00161
:10061000FF3083168500003086008800831264292D
:100620000430A3000130A4009521A10121089B20E2
:10063000003803191F2BA10AA200B821162B053080
:10064000A3000230A4009521A1012108AA200038AE
:1006500003192E2BA10AA200B821252B860185198A
:10066000352B0C30A200B821DD29051A382B4A2A77
:10067000851A3C2B992A382B051B402BDF2A3C2B53
:040680002E2B6300BA
:04400E00F22CFF3F52
:00000001FF
;PIC16F887
